:100000000C9471050C9499050C9499050C94990520
:100010000C9499050C9499050C9499050C949905E8
:100020000C9499050C9499050C94740B0C94E30BA7
:100030000C9499050C9499050C9499050C949905C8
:100040000C9499050C9499050C9499050C949905B8
:100050000C9499050C9499050C9499050C94150E23
:100060000C9499050C9499050C9499050C94990598
:100070000C9499050C9499050C9499050C94990588
:100080000C9499050C9499050C9499050C94990578
:100090000C9499050C9499050C9499050C94990568
:1000A0000C9499050C9499050C9499050000000096
:1000B000003E5B4F5B3E3E6B4F6B3E1C3E7C3E1CEE
:1000C000183C7E3C181C577D571C1C5E7F5E1C0034
:1000D000183C1800FFE7C3E7FF0018241800FFE7EB
:1000E000DBE7FF30483A060E2629792926407F05AE
:1000F0000507407F05253F5A3CE73C5A7F3E1C1CC4
:1001000008081C1C3E7F14227F22145F5F005F5F83
:1001100006097F017F006689956A6060606060946F
:10012000A2FFA29408047E040810207E2010080874
:100130002A1C08081C2A08081E101010100C1E0C7F
:100140001E0C30383E3830060E3E0E060000000011
:100150000000005F00000007000700147F147F14F8
:10016000242A7F2A1223130864623649562050003D
:1001700008070300001C2241000041221C002A1C29
:100180007F1C2A08083E0808008070300008080814
:100190000808000060600020100804023E51494534
:1001A0003E00427F400072494949462141494D3352
:1001B0001814127F1027454545393C4A49493141B9
:1001C000211109073649494936464949291E000087
:1001D00014000000403400000008142241141414DC
:1001E0001414004122140802015909063E415D59C8
:1001F0004E7C1211127C7F494949363E41414122D1
:100200007F4141413E7F494949417F090909013EFA
:10021000414151737F0808087F00417F4100204021
:10022000413F017F081422417F404040407F021C33
:10023000027F7F0408107F3E4141413E7F0909094A
:10024000063E4151215E7F09192946264949493216
:1002500003017F01033F4040403F1F2040201F3FDC
:100260004038403F63140814630304780403615961
:10027000494D43007F4141410204081020004141A3
:10028000417F04020102044040404040000307084F
:100290000020545478407F2844443838444444284B
:1002A000384444287F385454541800087E090218F2
:1002B000A4A49C787F0804047800447D400020407A
:1002C000403D007F1028440000417F40007C0478BE
:1002D00004787C080404783844444438FC18242406
:1002E0001818242418FC7C08040408485454542486
:1002F00004043F44243C4040207C1C2040201C3C03
:100300004030403C44281028444C9090907C4464F9
:10031000544C44000836410000007700000041368C
:10032000080002010204023C2623263C1EA1A16112
:10033000123A4040207A3854545559215555794144
:100340002154547841215554784020545579400C1B
:100350001E527212395555555939545454593955FC
:100360005454580000457C410002457D420001453F
:100370007C40F0292429F0F0282528F07C545545AC
:10038000002054547C547C0A097F4932494949323F
:100390003248484832324A4848303A4141217A3A54
:1003A00042402078009DA0A07D39444444393D401E
:1003B00040403D3C24FF2424487E4943662B2FFCCB
:1003C0002F2BFF0929F620C0887E09032054547979
:1003D000410000447D413048484A32384040227A4A
:1003E000007A0A0A727D0D19317D2629292F2826C7
:1003F0002929292630484D402038080808080808CF
:100400000808382F10C8ACBA2F102834FA00007B27
:10041000000008142A142222142A1408950022002D
:1004200095AA005500AAAA55AA55AA000000FF00E7
:10043000101010FF00141414FF001010FF00FF1024
:1004400010F010F0141414FC001414F700FF000056
:10045000FF00FF1414F404FC141417101F10101FD5
:10046000101F1414141F00101010F0000000001FC3
:10047000101010101F10101010F010000000FF10CE
:100480001010101010101010FF10000000FF1400CA
:1004900000FF00FF00001F10170000FC04F41414FC
:1004A0001710171414F404F40000FF00F7141414C8
:1004B00014141414F700F7141414171410101F1048
:1004C0001F141414F4141010F010F000001F101F6B
:1004D0000000001F14000000FC140000F010F010D9
:1004E00010FF10FF141414FF141010101F00000050
:1004F00000F010FFFFFFFFFFF0F0F0F0F0FFFFFF54
:100500000000000000FFFF0F0F0F0F0F38444438AA
:10051000447C2A2A3E147E02020606027E027E02E5
:1005200063554941633844443C04407E201E200604
:10053000027E020299A5E7A5991C2A492A1C4C7241
:1005400001724C304A4D4D303048784830BC625AC8
:10055000463D3E494949007E0101017E2A2A2A2A58
:100560002A44445F444440514A444040444A514034
:100570000000FF0103E080FF000008086B6B0836F5
:1005800012362436060F090F060000181800000066
:100590001010003040FF0101001F01011E00191D55
:1005A0001712003C3C3C3C0000000000F0F89C8E20
:1005B0008783878E9CF8F00000FEFF03030303038C
:1005C000070EFCF80000FEFF0303030303070EFC05
:1005D000F80000FFFF00000000000000FFFF000027
:1005E000FEFF8383838383C7EE7C380000F8FC0E14
:1005F00007030303070EFCF800003F7FE0C0808084
:10060000C0E07F3FFFFF01010101010101FFFF0089
:1006100000FFFF0C0C0C0C1C3E77E3C100007FFFB9
:10062000C0C0C0C0C0E0703F1F00001F3F70E0C0EE
:10063000C0C0E0703F1F00007FFFC1C1C1C1C1E366
:10064000773E1C00001F3F70E0C0C0C0E0703F1F3D
:10065000000000000001FFFF01000000D5F08D1434
:10066000A1C881CFD9F1AF2000080830306878F0F8
:10067000F0101070701010F0F008083030E8F870CA
:10068000701010F0F0101070701010080878784694
:100690004624241818FFFF181824241818787846C0
:1006A00046A5A55A5A3C3C181824241818787846B0
:1006B00046242418183C3C5A5AA5A51818140A6058
:1006C0006090F008F808F808F804FC02FE01FF0149
:1006D000FF01FF01FF01FF01FF01FF01FF02FE0C0F
:1006E000FCB0F060600000000000000101020302A5
:1006F00003020302030203020302030203020302D2
:1007000003020302030203030301010000000010BF
:100710001000000000000000005050E0E0F0F0E0A9
:10072000E0F0F0E0E0F0F0A0A00000000000000029
:1007300000000000000000000005050F0F07070F74
:100740000F07070F0F07070A0A000000000000004C
:1007500000080811111111111111111F1F1F1F0085
:100760000000001010808040402020FCFC02FEC9E8
:10077000FF55FF49FF49FF55FFC9FF02FEFCFC2062
:10078000207F7F20200000000000003F3FA4BFE446
:10079000FF253F253F253F253FE4FFA4BF3F3F0006
:1007A0000000000000102000000000000080808099
:1007B00080C0C060E060E060E060E040C040C0C079
:1007C000C0000000000000C0C03CFC06FE43FFC4A7
:1007D000FF8CFF98FF70FFC0FF60FF20FF18FF80B5
:1007E000FF87FF1CFCF0F007071C1F303F293F4824
:1007F0007F587F517FFDFFFFFF3A3F333F919FD8E6
:10080000DF484F0E0F03030000000000000000004F
:10081000008080E0E0FFFF3FFFE1E1818100000018
:1008200000000000000000070706061F1F3F3F7E74
:100830007E3F3F1F1F060610100000000000000052
:1008400000FEFE03FF02FE12FE02FE42FE12FE0347
:10085000FFFEFE000000000000010102020404FF90
:10086000FF717F111FF1FF111F7F7F010101010146
:100870000101010000000000000000000000000075
:1008800000FEFE03FF02FE12FE02FE42FE12FE0307
:10089000FFFEFE0000000000000101020204047FD0
:1008A0007FF1FF111F717F111FFFFF010101010186
:1008B0000101010000000000000000000000000035
:1008C00000000080800000000000000000000080A8
:1008D0008000000000000000008080808080808018
:1008E00080FFFF81FF81FF89FF81FFA1FF89FF81D9
:1008F000FFFFFF00000000000000000000000000FB
:1009000000FEFE03FF02FE12FE02FE42FE12FE0386
:10091000FFFEFE0000000000001010888844443FE5
:100920003FF1FF111FF1FF111F1F1F0505050505F1
:10093000050505040404040404000000000000FE92
:10094000FE03FF12FE42FE02FE12FE02FE03FFFE47
:10095000FE00000000000000000000000000000198
:10096000010101010101017F7F111FF1FF111F71C1
:100970007FFFFF040402020101000000000000FEEE
:10098000FE03FF12FE42FE02FE12FE02FE03FFFE07
:10099000FE00000000000000000000000000000158
:1009A00001010101010101FFFF111F717F111FF101
:1009B000FF7F7F040402020101000000000000002C
:1009C0000080800000000000000000000080800027
:1009D000000000000000000000000000000000FF18
:1009E000FF81FF89FFA1FF81FF89FF81FF81FFFF59
:1009F000FF8080808080808080000000000000FEFA
:100A0000FE03FF12FE42FE02FE12FE02FE03FFFE86
:100A1000FE000000000000000004040404040405BB
:100A2000050505050505051F1F111FF1FF111FF124
:100A3000FF3F3F4444888810100C0804040C0C0449
:100A4000040C0C1F1F0A0E0A0E1F1F0C0C04040CB2
:100A50000C04042020303018180C0C1F1F0A0E0A3A
:100A60000E1F1F0C0C181830302020080B0002023B
:100A70000200000904000001020200000524001029
:100A800001052401010104240206052406000107D2
:100A900005810310004009040100020A000000075C
:100AA000050202400000070583024000000403091C
:100AB0000412010002EF02014041233680000101CF
:100AC00002030141726475696E6F204C4C43004112
:100AD000726475696E6F204C656F6E6172646F0031
:100AE000920E11241FBECFEFDAE0DEBFCDBF11E0C2
:100AF000A0E0B1E0ECE7F4E302C005900D92AC3D5C
:100B0000B107D9F726E0ACEDB1E001C01D92A339E1
:100B1000B207E1F715E0C1E7D5E004C02197FE0177
:100B20000E944418C037D107C9F70E94B20E0C9436
:100B30003C1A0C940000EAE3F2E0A0E0B8E0008088
:100B40000EBC8111012C1197A0FDFDCF0192B9F7C8
:100B50000DB40895FC0180913902882311F13FB74B
:100B6000F89482E08093E9002091F200822F90E0D7
:100B70001816190614F481E090E0882339F02898BB
:100B800044E6409338024091F1004083222339F03B
:100B90002091F200211103C02BE62093E8003FBF13
:100BA00008958FEF9FEF08952FB7F89483E0809317
:100BB000E9009091E800892F807295FF04C0909120
:100BC000F20080E4891B2FBF0895809130028111CB
:100BD0000DC082E080932C0284E080932D0210925D
:100BE0002F0210922E0281E0809330028CE292E07C
:100BF0000895CF93DF931F92CDB7DEB76983DC01F1
:100C0000ED91FC910280F381E02D41E050E0BE01C6
:100C10006F5F7F4F09950F90DF91CF91089583E02B
:100C20008093E9008091F200882319F08AE3809391
:100C3000E80008950E94D40590E00895CF93DF93D3
:100C40001F92CDB7DEB7FC018485958597FD08C05E
:100C50002FEF3FEF358724870F90DF91CF910895D5
:100C6000CE0101960E94AA05019719F4898190E0AE
:100C7000F3CF8FEF9FEFF0CF0F931F93CF93DF93BF
:100C80001F92CDB7DEB78C01FC018485958597FF57
:100C90000BC0CE0101960E94AA05019771F48981CB
:100CA00090E0F80195878487F801848595850F90F9
:100CB000DF91CF911F910F9108958FEF9FEFF1CFAB
:100CC000FC018485958597FD0BC09FB7F89482E061
:100CD0008093E9008091F2009FBF90E00196089513
:100CE0009FB7F89482E08093E9008091F2009FBF63
:100CF00090E008954091260250912702209124020D
:100D00003091250242175307B4F49091E800957092
:100D1000E1F39091E80092FD19C08093F100809179
:100D200026029091270201968F739927892B19F437
:100D30008EEF8093E8008091260290912702019621
:100D4000909327028093260281E0089580E0089521
:100D5000DF92EF92FF920F931F93CF93DF93D82EE2
:100D60008A01EB017B01E40EF51ECE15DF0559F07B
:100D7000D7FE12C0FE0184910E947A06219681114D
:100D8000F4CF0FEF1FEFC801DF91CF911F910F91AB
:100D9000FF90EF90DF9008958881EECF0F931F931F
:100DA000CF93DF931F92CDB7DEB782E0898342E411
:100DB00050E06BE67AE080E80E94A8060E94E50514
:100DC000DC0112960D911C910115110589F0D801D5
:100DD000ED91FC910280F381E02DBE016F5F7F4FAA
:100DE000C801099597FD04C0F80100851185ECCF75
:100DF00089810F90DF91CF911F910F9108956150DC
:100E000030F02091F100FC0120830196F8CF289862
:100E100084E68093380208953FB7F89480912002C9
:100E200090912102A0912202B091230226B5A89BA5
:100E300005C02F3F19F00196A11DB11D3FBFBA2F6C
:100E4000A92F982F8827BC01CD01620F711D811D2C
:100E5000911D42E0660F771F881F991F4A95D1F7B1
:100E600008958F929F92AF92BF92CF92DF92EF92AE
:100E7000FF926B017C010E940C074B015C01C114C5
:100E8000D104E104F104B9F00E940C076819790952
:100E90008A099B09683E73408105910580F321E032
:100EA000C21AD108E108F10888EE880E83E0981E86
:100EB000A11CB11CE4CFFF90EF90DF90CF90BF90CA
:100EC000AF909F908F9008958F929F92AF92BF9214
:100ED000CF92DF92EF92FF920F931F93CF93DF9306
:100EE0006C017B018A0180910D01882309F45CC0AB
:100EF00080913902882309F457C080912B0280FF2A
:100F000005C08091E00082608093E000E801B12C90
:100F10008AEFA82E93E0892E2AE3922E209711F4CF
:100F2000BB20D9F10E94D40581110AC0AA94AA203D
:100F3000D9F161E070E080E090E00E943107EECFEF
:100F40008C171D0611F00CF08C2F9FB7F89480922F
:100F5000E9002091E80025FD02C09FBFDFCF282FC8
:100F600030E0C21BD30BF701815020F04191409338
:100F7000F100FACFE20EF31EBB2021F09092E800C0
:100F8000B12CEBCF8091E80085FDE7CF9092E8008F
:100F9000BB24B394209709F3F3CF5D9884E6809344
:100FA0002A02101611063CF081E090E0F6019383CE
:100FB000828310E000E0C801DF91CF911F910F9173
:100FC000FF90EF90DF90CF90BF90AF909F908F9069
:100FD0000895AF92BF92CF92DF92EF92FF920F935C
:100FE0001F93CF93DF936C017B018B01040F151FBF
:100FF000EB015E01AE18BF08C017D10759F0699127
:10100000D601ED91FC910190F081E02DC60109958A
:10101000892B79F7C501DF91CF911F910F91FF9037
:10102000EF90DF90CF90BF90AF900895FC01448186
:101030005581608171818BE896E00C94E9078F926D
:101040009F92AF92BF92CF92DF92EF92FF921F9347
:10105000CF935C016A01FA01549131969491F2E0C8
:10106000CF0ED11CE52EF12C222309F1A1E0B0E036
:10107000892F877011F4B0E0A0E0E92FE695E6959E
:10108000E695EA0FFB2FF11DEE9DD001EF9DB00D0F
:10109000FE9DB00D112430E0220F331FA29FF001FE
:1010A000A39FF00DB29FF00D1124CE0EDF1ED501CF
:1010B000AE0DBF1D1A161B060CF0A9C040E8A41601
:1010C000B1040CF0A4C09B01290F311D12161306A8
:1010D0000CF09DC0603471050CF099C0C114D104AE
:1010E00009F495C0C62FC770FB0177FD379613E052
:1010F000F595E7951A95E1F73E2F77FF04C0CC23CD
:1011000011F03FEF3E0F662777276A197B09B7FC7E
:1011100002C070E060E020E82A19A038B1050CF4A4
:10112000252F261BE32F032E000CFF0B8E2F8095FF
:101130003F3F0CF080E011E0492F477009F410E0C8
:10114000969596959695910FE90FF11D399714F0A4
:1011500098E0931B192F181B380F40E83403D00177
:101160001124AA0DBB1DA60FB71FA65CBD4FA22E52
:10117000B12CFB01589FE00DF11D1124CF01880F08
:10118000991FC80ED91E60E870E06A197B09A70193
:101190004A195B09440F551F81E090E07C010C2E39
:1011A00001C0EE0C0A94EAF7822EF6019C2ECF9332
:1011B000DF93ED01EF96EF962296A590C5909920CA
:1011C00059F0AE9C5001CE9C600137302CF4F88071
:1011D000D094FD20FB28F99233233AF0FC90C09480
:1011E000FC20FA28FD920C94F60811962A9529F70E
:1011F0001A9551F0282D33951124E40FF11DA60FF7
:10120000B11DC60FD11DD9CFDF91CF911124CF9140
:101210001F91FF90EF90DF90CF90BF90AF909F9085
:101220008F9008952D9A0895BC0190E080E00C9471
:1012300031078FB18095807F669B88601C9B84609E
:1012400008955C988EBD00000DB407FEFDCF5C9A3A
:10125000089520E191E061FD94E060FD990F62FD49
:101260009295687F269FD0011124A80FA65CBD4FE0
:101270008C9140FF03C0892B8C930895909589230E
:10128000FBCF8038910528F46034710510F40C947C
:10129000290908958F929F92AF92BF92CF92DF92C9
:1012A000EF92FF920F931F93CF93DF936D3089F0EE
:1012B000C090DF01D090E0016A30D1F41092E201D9
:1012C0001092E10188E0C80ED11CD092E001C092DA
:1012D000DF0181E090E0DF91CF911F910F91FF90AE
:1012E000EF90DF90CF90BF90AF909F908F90089538
:1012F0000091E1011091E201E5E06E9FE00111240F
:10130000C455DF4F4801F12CF5E0E12CFF1629F020
:10131000CE010196FE01E490EC01B12CA12C4E2DE2
:101320004170B6016A0D7B1DC4010E944109E6941B
:10133000FFEFAF1ABF0A88E0A816B10481F7F39453
:10134000EFEF8E1A9E0AF6E0FF12DECF0A5F1F4F04
:101350001093E2010093E101BCCF9091DC0198234E
:1013600029F49091DD01982381E009F480E008954B
:10137000CF93C82F0E941909982F9C2381E09C13BA
:1013800080E0CF91089581E080930B02809100016D
:10139000815080930001811103C083E080931A0281
:1013A00008958091DE018A3010F48695089584E0D6
:1013B0000895089590E080E00895FC0101900020D8
:1013C000E9F73197AF01481B590BBC018BE896E058
:1013D0000C94E907FC0180819181009711F00C9435
:1013E000E61808950C946C170F931F93CF93DF9317
:1013F000EC0188819981009759F02A813B81261759
:10140000370730F081E0DF91CF911F910F91089560
:101410008B016F5F7F4F0E946F19009759F099837E
:1014200088831B830A832C813D81232B59F7FC0180
:101430001082E8CF80E0E7CFCF92DF92EF92FF9269
:101440000F931F93CF93DF93CDB7DEB729970FB6D6
:10145000F894DEBF0FBECDBF8C01862FF80111823C
:10146000108213821282158214824AE09E012F5F3D
:101470003F4F6901B90190E00E944217F6010190C7
:101480000020E9F731977F01EC18FD08B701C8018A
:101490000E94F409F8012081318181111CC02115BD
:1014A000310519F0C9010E94E618F8011182108275
:1014B000158214821382128229960FB6F894DEBF29
:1014C0000FBECDBFDF91CF911F910F91FF90EF9095
:1014D000DF90CF900895F582E482B601C9010E94A1
:1014E000351AEACF3F924F925F926F927F928F921E
:1014F0009F92AF92BF92CF92DF92EF92FF920F93A3
:101500001F93CF93DF939091010181E0892780930E
:10151000010186EA911187EA5C988EBD00000DB446
:1015200007FEFDCF5C9A8091DE018F5F8093DE0124
:10153000312C60E5462E512C612C712C78E0872EE1
:1015400072E0972EA12CB12CE1E5CE2ED12CE12C0E
:10155000F12C0E94D1093816D0F5C32DD0E0FE0140
:10156000E850FE4F10820E94EA168E01095F1D4F5F
:10157000A30192010E948217625E7F4F8F4F9F4F9F
:10158000F80160830E94EA168E01000F111F045FAC
:101590001D4FA50194010E948217665F7F4F8F4FF8
:1015A0009F4FF80171836083FE01EC50FE4F108263
:1015B0000E94EA16C051DE4FA70196010E948217D1
:1015C000625E7F4F8F4F9F4F68833394C2CF86EC0C
:1015D00092E09093FF018093FE011092030280E15C
:1015E0009EE09093180280931702C3EED1E006EEBE
:1015F00011E026EEE22E21E0F22E3BE6432E512CA6
:10160000612C712C4EE1842E912CA12CB12C0E94C6
:10161000EA16A30192010E94821769930E94EA16BA
:10162000A50194010E948217F80161938F01EC16C5
:10163000FD0669F70E94EA1623E030E040E050E042
:101640000E948217B62EC9EED1E000E010E09AE0C9
:10165000C92ED12CE12CF12C0E94EA16A70196018B
:101660000E9482176F5F7F4F8F4F9F4F600F69936C
:10167000B1120BC070E06F5F7F4F660F771F660F70
:10168000771F7093FD016093FC011F5F075E1530AB
:1016900019F781E090E09093160280931502109262
:1016A000050210920402109214021092020210928B
:1016B0000B028091DE018930A8F084E080931A0249
:1016C000DF91CF911F910F91FF90EF90DF90CF901E
:1016D000BF90AF909F908F907F906F905F904F9052
:1016E0003F90089581E0EACF1F920F920FB60F92BC
:1016F00011248F939F938091E1009091E100937F5B
:101700009093E10083FF0FC01092E90091E0909365
:10171000EB001092EC0092E39093ED0010923902EE
:1017200098E09093F00082FF22C093E09093E9004C
:101730009091F200992319F09AE39093E800909128
:101740002A02992341F090912A02915090932A0203
:10175000911101C05D9A90913802992341F09091C6
:101760003802915090933802911101C0289A84FF59
:1017700018C08091E2008E7E81608093E2008091AB
:10178000E1008F7E8093E10080912B028E7E80614C
:1017900080932B029F918F910F900FBE0F901F90FF
:1017A000189580FFF7CF8091E2008E7E8061809354
:1017B000E2008091E1008E7E8093E10080912B0217
:1017C0008E7E8160E5CF1F920F920FB60F9211248B
:1017D000CF92DF92EF92FF920F931F932F933F933D
:1017E0004F935F936F937F938F939F93AF93BF9329
:1017F000EF93FF93CF93DF93CDB7DEB76C97DEBF48
:10180000CDBF1092E9008091E80083FF25C068E019
:10181000CE0145960E94FF0682EF8093E8008D89F5
:1018200087FF39C09091E80090FFFCCF982F907609
:1018300009F034C19E894F89588D2F89F88C9111F8
:1018400031C0803861F5809129028093F1001092B7
:10185000F1008EEF8093E8006C960FB6F894DEBF2F
:101860000FBECDBFDF91CF91FF91EF91BF91AF91AF
:101870009F918F917F916F915F914F913F912F91A8
:101880001F910F91FF90EF90DF90CF900F900FBEC0
:101890000F901F9018959EEF9093E800C7CF10927D
:1018A000F100D5CF913059F48111D3CF413051059A
:1018B00081F6809129028D7F80932902CACF9330CF
:1018C00049F48111C6CF4130510519F680912902A2
:1018D0008260F2CF953041F48091E80080FFFCCF28
:1018E00020682093E300B5CF963009F0A9C00B8D96
:1018F0001C8D22E01092E90010922702109226021D
:10190000F2122EC010922502109224020E94CE06DE
:101910001F8299E09983FA8291E09E8390EA9887EA
:101920009AEF99872091260230912702275F3F4F37
:101930003C832B838D831092E90010922702109232
:101940002602109325020093240249E050E0BE01D4
:101950006F5F7F4F80E00E94A8060E94CE0679CF7D
:1019600010932502009324020E94E505DC011296E3
:101970000D911C910115110509F451C1D801ED918A
:10198000FC910480F581E02DBE016B5E7F4FC801A4
:101990000995009709F03EC1F80100851185EACF4D
:1019A000F3E0FF120EC08F89882309F440C0823013
:1019B00061F440E860E18FEC9AE00E945F0E8111D3
:1019C00048CF81E28093EB0047CF813029F440E893
:1019D0006BE083EC9AE0F1CF833099F70E94E50544
:1019E000DC011296ED90FC908E010F5F1F4F680195
:1019F000E114F10479F0D701ED91FC910680F781B3
:101A0000E02DB801C7010995080F111DF701E08409
:101A1000F184EECFD8011C92F60101900020E9F785
:101A20003197BF016C197D0940E0C601C6CF6DEA50
:101A30007AE0FB01449150E080E80E94A80609CFBB
:101A4000973009F4BECF983021F481E08093F10003
:101A500000CF993009F0FDCE837009F0B2CFE9E2F2
:101A6000F1E081E031E096E32191222371F080934F
:101A7000E9003093EB00DF0111972C912093EC00EB
:101A80009093ED008F5F873079F78EE78093EA00BF
:101A90001092EA008F8980933902DBCE8B8D9C8D6A
:101AA0001092E900109227021092260290932502CC
:101AB00080932402898D811192C08E899D89913AEB
:101AC00049F4813209F07DCF47E050E066E071E0F3
:101AD00080E0B3CF913209F074CF833269F48F89FB
:101AE000988DB0E0A0E08093020190930301A09351
:101AF0000401B0930501ADCE803269F48091E80015
:101B000082FFFCCF67E086E091E00E94FF068BEF4A
:101B10008093E8009ECE823209F09BCE8F8980931D
:101B20000D01EEEFFFE7859194918B3F9C4D51F1B4
:101B3000E0E0F8E08091060190910701A091080192
:101B4000B0910901803B9440A105B105F1F4809169
:101B50000D0180FD1AC0EE3F8AE0F80789F587E79E
:101B600097E791838083809160008093280288E1C9
:101B70009BE00FB6F894A895809360000FBE9093F9
:101B8000600067CEEEEFFAE0D5CF80819181873794
:101B9000974709F05ECEA895809160008861809398
:101BA00060008091280280936000EE3F2AE0F207F7
:101BB00089F08091FE0A9091FF0A9183808349CE3B
:101BC000808191818737980751F29093FF0A809323
:101BD000FE0AC5CF1092FF0A1092FE0A3ACE0E946A
:101BE000E505DC0112960D911C910115110509F412
:101BF000E8CED801ED91FC910190F081E02DBE017D
:101C00006B5E7F4FC8010995811123CEF8010085D5
:101C10001185EBCF181619060CF41BCED2CEF1E0CD
:101C2000FF12BECE61EB7AE004CF1F920F920FB687
:101C30000F9211242F933F938F939F93AF93BF9352
:101C400080911C0290911D02A0911E02B0911F0272
:101C500030911B0223E0230F2D3758F50196A11D6B
:101C6000B11D20931B0280931C0290931D02A09330
:101C70001E02B0931F028091200290912102A09138
:101C80002202B09123020196A11DB11D8093200272
:101C900090932102A0932202B0932302BF91AF91AF
:101CA0009F918F913F912F910F900FBE0F901F909A
:101CB000189526E8230F0296A11DB11DD2CFEF92F1
:101CC000FF920F931F93CF93DF93F82E192FE62ED9
:101CD000042F81E0860F880F0E947A0683E00E941D
:101CE0007A06CF2DD12FEC0EFD2EF11CCE15DF057F
:101CF000B9F007FF13C0FE0184910E947A06182FE5
:101D000080E00E947A06812321968111EFCFDF9136
:101D1000CF911F910F91FF90EF9008958881EDCFA3
:101D200081E0F5CFEAE3F6E01382128288EE93E0D9
:101D3000A0E0B0E084839583A683B78383E391E03A
:101D4000918380838FEF9FEF95878487EBE8F6E0A0
:101D50001382128285E491E0918380838EE18093E7
:101D60008A060895CF93DF93CDB7DEB76B970FB692
:101D7000F894DEBF0FBECDBF789484B5826084BD79
:101D800084B5816084BD85B5826085BD85B581607F
:101D900085BD80916E00816080936E0010928100FD
:101DA00080918100826080938100809181008160B8
:101DB0008093810080918000816080938000809179
:101DC0009100826080939100809191008160809366
:101DD0009100809190008160809390008091C1007B
:101DE00084608093C1008091C10082608093C100B3
:101DF0008091C10081608093C1008091C3008160A7
:101E00008093C3008091C00082608093C000809165
:101E1000C20081608093C20080917A0084608093C8
:101E20007A0080917A00826080937A0080917A00B3
:101E3000816080937A0080917A00806880937A0034
:101E4000109239021092290210922B028091D70031
:101E500081608093D70080EA8093D80089B5806143
:101E600089BD89B5826089BD09B400FEFDCF61E0FE
:101E700070E080E090E00E9431078091D8008F7C74
:101E800080618093D8008091E000807F8093E000A3
:101E90008091E1008E7E8093E1008DE08093E200EE
:101EA000559A209A81EC80937C0085B1806F85B92A
:101EB00084B1877E84B984B1876E84B95E9A5F9855
:101EC0008AB1806D8AB9769A6E9881B3806F81BB32
:101ED000899880B38D7080BB80E58CBD81E08DBD1D
:101EE00085E090E00E9414095F9A85E090E00E94EE
:101EF00014095E985C98ECE5F6E089E696E024919A
:101F00002EBD00000DB407FEFDCF31968E179F0742
:101F1000B1F75C9A81E880936400809165008160EC
:101F20008093650080E00E949B0580E80E94B809CC
:101F3000882381F085EA0E9421092E982F982D98F8
:101F40008091640080628093640081E083BF889503
:101F500013BEFCCF84E00E94B809882309F448C06E
:101F60002D9884E80E94B8098823E1F00E941209A4
:101F700088EC90E00E9414092F9882E090E00E9483
:101F80006C178F3F29F06FEF82E090E00E9474178A
:101F900084EF91E00E9414092F9A84E80E94B80906
:101FA0008111FBCF84E10E94B8098823E1F00E94EF
:101FB000120988EC90E00E9414092E9882E090E0CB
:101FC0000E946C17882329F060E082E090E00E9474
:101FD000741784EF91E00E9414092E9A84E10E9404
:101FE000B8098111FBCF88EC90E00E941409B2CFB0
:101FF0000E94120982E090E00E94F209882309F40D
:10200000CDC03E9A3F9A81E090E00E94F209282FCD
:102010002470522E81FF11C021112E9801EF1FEF65
:1020200078E0A72EB12C80E40E94B809882309F437
:10203000B8C02E9A2F9A0E94120982E390E00E9463
:1020400014090E9419098111F8CFEAE3F2E0811125
:102050008FEF002481938193819381930394D1F72F
:102060001092E0011092DF011092E2011092E10162
:1020700087EA0E942109109290008AE080939100E3
:102080002EE1C22ED12C8E010F5F1F4F3AE0A32EFE
:10209000B12C94E1292E312C80910002882339F053
:1020A000815080930002811102C0109290008091B3
:1020B000DD018093DC010E9419098093DD0180918C
:1020C0001A0281113BC11092DE0183E0809300016E
:1020D000EE24E394F12CF092E201E092E10185E03C
:1020E00090E09093E0018093DF018DE491E00E9405
:1020F000DD0982E0882E912C9092E2018092E1012C
:1021000082E190E09093E0018093DF018DE591E022
:102110000E94DD099092E2018092E1018CE190E061
:102120009093E0018093DF0187E691E00E94DD0952
:10213000F092E201E092E10188E290E09093E00108
:102140008093DF018DE791E00E94DD09F092E201CA
:10215000E092E10185E390E09093E0018093DF015C
:1021600082E991E00E94DD0988E00E94AD098111B9
:1021700005C084E00E94AD09882329F081E08093A6
:102180001A020E94720A81E00E949B0580E090E0A2
:10219000892B09F481CF0E9400007BCF3E983F98A5
:1021A00032CF552029F00430110511F42E9A2F98C2
:1021B00081E00E949B05980117FF04C02227332766
:1021C000201B310B27703327C80117FD079663E0EA
:1021D000959587956A95E1F717FF05C00197A501C9
:1021E000421B530B9A01BC017695762F6627779593
:1021F0006795F12CE12C1501221A330A8E3F5FEF0F
:10220000950709F447C0A8E5AE9D4001AF9D900C2D
:102210001124DB01A65CBD4F50E040E0F401E45521
:10222000FA4F4F01FB01E654FD4F3F018F3F9807E6
:1022300081F0F401E40FF51FE491022E01C0EE0FCE
:102240000A94EAF75496FC915497EF2B5496EC932A
:10225000549721153105C1F0F401E40FF51F4490A6
:102260006301C40ED51EE42DF0E0022C02C0F595EA
:10227000E7950A94E2F7F98FE88FF601F489FA8F6F
:10228000488C4F2AF601448A4F5F5F4F11964835BC
:10229000510561F6019660587F4FEA94EF2809F0E6
:1022A00049C080E00E949B058FE090E00E941409E5
:1022B0000F5F1F4F0931110509F0B5CE552011F000
:1022C0002F9A2D9880E991E00E9414090E9412092A
:1022D00081E090E00E94F20980FFAFCE8AE090E0BA
:1022E0000E94F2099FEF980F9E3F08F0A6CE22E3CE
:1022F00030E03093E2012093E10128E330E03093B5
:10230000E0012093DF010BE010E0682F8BE896E0FE
:102310000E944A09C8010E94F2090F5F1F4F013154
:10232000110599F780E00E949B0588EE93E00E94DA
:10233000140983CEEE24E394F12C60CF813009F0B0
:102340009FC081E090E09093E2018093E10185E0FD
:1023500090E09093E0018093DF018DE491E00E9492
:10236000DD09B092E201A092E1013092E0012092F9
:10237000DF0182EA91E00E94DD09ACE3EA2EF12C54
:10238000F092E201E092E1013092E0012092DF015F
:102390006091DE01C8010E941C0AC8010E94160853
:1023A000C8010E94EA09B092E201A092E101D09234
:1023B000E001C092DF0188EA91E00E94DD09F0921D
:1023C000E201E092E101D092E001C092DF01809150
:1023D000EE019091EF011B8A1A8A1D8A1C8A1F8ABE
:1023E0001E8A4AE0B8010E944217F80101900020BD
:1023F000E9F731977F01E01AF10AB701CE01429661
:102400000E94F4092A893B89811133C021153105C5
:1024100019F0C9010E94E6181B8A1A8A1F8A1E8AAF
:102420001D8A1C8ACE0142960E941608CE01429651
:102430000E94EA0981E090E09093E2018093E1013B
:1024400082E390E09093E0018093DF0182E991E0E4
:102450000E94DD0988E00E94AD09811106C084E078
:102460000E94AD09882309F48ECE82E080931A027F
:102470008ACEFF8AEE8AB801C9010E94351AD2CFEE
:10248000833009F04CC0EE24E394F12CF092E20189
:10249000E092E101B092E001A092DF018EEA91E0CA
:1024A0000E94DD09F092E201E092E101D092E001A8
:1024B000C092DF0189EB91E00E94DD0984E690E0A3
:1024C0009093E2018093E101D092E001C092DF019C
:1024D0006091DE01C8010E941C0AC8010E94160812
:1024E000C8010E94EA09F092E201E092E10182E370
:1024F00090E09093E0018093DF0182E991E00E94F7
:10250000DD0988E00E94AD09811106C084E00E94C7
:10251000AD09882309F437CE10921A0234CE8430E4
:1025200081F4EE24E394F12CF092E201E092E101D7
:10253000B092E001A092DF018BEC91E00E94DD09F6
:10254000D2CF109206028091050281111CC08091A9
:102550000B02811118C084E00E94AD09F0900402C2
:10256000882309F464C0F11062C086E18093000200
:1025700090E49093900020EE38E0309399002093FF
:10258000980080930502809119028F5F8F3F09F4B4
:10259000DDC0809319028091170290911802019773
:1025A00009F4D7C090931802809317028091030218
:1025B0008823B9F08091FE019091FF018D395FEF82
:1025C00095077CF02091FC013091FD012F5F3F4F7A
:1025D0003093FD012093FC0101979093FF018093BC
:1025E000FE0190900101992009F4BEC0F12CEE2467
:1025F000E3940E94D109F81608F0B6C0EF2DF0E080
:10260000DF01AA0FBB1FA45FBD4F8D919C91119755
:10261000E850FE4F2081222309F49EC001968D933D
:102620009C938231924008F01082F394E2CF88E0CC
:102630000E94AD09882399F0F11011C081E08093C8
:1026400004028093030284E18093000280E480937B
:10265000900087EE93E0909399008093980080918A
:102660000402882391F0809119028F7071F4E09137
:102670000202EF5FE0930202E03108F442C01092E0
:102680000202109204021092140280E10E94B80922
:10269000F82E8093060280E20E94B8098823F1F0A8
:1026A00021E030E0F11002C022E030E0809115021C
:1026B00090911602821B930B20910402222341F178
:1026C00022E030E0821B930B8430910520F190933F
:1026D00016028093150284E08093010280E40E9438
:1026E000B809882309F44FCF2091150230911602C2
:1026F000263F49E0340790F00E94720A10920102CE
:1027000042CFF0E0E85EFE4F808180931402BDCF9F
:1027100030E020E0D7CF84E090E0D9CF81E090E0B6
:10272000F11002C082E090E0820F931F209104021A
:10273000222349F022E030E0820F931F909316028B
:1027400080931502DBCF30E020E0F6CF1092190223
:1027500022CF80E19EE026CF01978D939C930B972B
:1027600008F063CFE08261CF809117029091180248
:10277000B6010E941C18662EE0901502F090160219
:10278000C701B1010E941C18798F688F80911402D3
:102790006FE2762E781A19821A821B821C82812C93
:1027A0000E94D109881698F4882D90E0F801E80F6E
:1027B000F91F880F991FDC01A45FBD4F8D919C917B
:1027C0006AE070E00E941C1860838394E9CF8091D6
:1027D0000B02882309F453C0B6E1EB16F10498F517
:1027E00010920B0281E090E0909316028093150204
:1027F000109201021092140210920202109204022E
:10280000F12CE12C41E06FE370E0C7010E94410927
:10281000EFEFEE1AFE0AF0E8EF16F10499F7F12C4B
:1028200080910001F81608F029C128E0F29EC0014D
:10283000112420E047E258E061E070E001960E9438
:102840001F08F394EDCFE5E0EE1AF108F0921602BE
:10285000E092150284E080930102809119028F704A
:1028600079F6E0910202EE2359F2E150E093020280
:10287000F0E0E85EFE4F808180931402C1CFE88CC7
:10288000F98CFF2491103DC0512C272D2F52330B72
:10289000490150EB452E44275527421B530B5B8FB4
:1028A0004A8F0E94D109581608F068C0852D90E023
:1028B000FC01EC50FE4F2081211121C080519E4F20
:1028C000DC018C91F701E81BF109CF01F7FF03C090
:1028D000919581959109883090F4882D97FC8A8D87
:1028E000883068F440920002F0E4F09390002BE20C
:1028F00032E030939900209398000E94C3095394CA
:10290000D0CF809106028111BFCF512C872C912C02
:1029100040EB442E0E94D109581608F0B5CF852D02
:1029200090E0F801E80FF91F2081D401A21BB10942
:102930009D01B7FF03C03195219531092630E0F4A0
:10294000895F9D4FFC0180819701281B3109C901D6
:1029500037FF03C09195819591098A3068F44092C0
:10296000000230E4309390004AE952E0509399001D
:10297000409398000E94C3095394CCCF80900502E5
:10298000882009F43DCF588C90900102911037C0F7
:102990008FEF860D85198E3078F448EC59E150930D
:1029A0001802409317028091EE019091EF01019679
:1029B0009093EF018093EE015094FF24F3940E94D2
:1029C000D109981608F056C0892D90E0FC01EC5012
:1029D000FE4F2081211111C080519E4FDC018C914E
:1029E000850D8E3050F4F0828091EE019091EF01D0
:1029F00001969093EF018093EE019394E0CFE61857
:102A0000F108B7E0EB0EF11CEFE0EE16F10478F4FC
:102A100028EC39E130931802209317028091EE01DF
:102A20009091EF0101969093EF018093EE01F12CCC
:102A3000EE24E3940E94D109F816E0F48F2D90E083
:102A4000FC01EC50FE4F2081211112C080519E4F9D
:102A5000DC018C91B52DB81BBD3050F4E082809123
:102A6000EE019091EF0101969093EF018093EE01BA
:102A7000F394E0CF8A9480920502C2CE9090010137
:102A8000992009F469C041E064E070E084E090E0DE
:102A90000E94290941E063E170E082E090E00E9439
:102AA000290941E069E070E088E090E00E9429098E
:102AB00041E06DE070E08DE090E00E94290941E086
:102AC0006FE170E080E190E00E94290941E064E15B
:102AD00070E085E190E00E94290941E069E070E042
:102AE0008AE190E00E94290941E06EE170E08EE108
:102AF00090E00E94290941E06AE070E082E390E002
:102B00000E94290941E063E170E084E390E00E94C3
:102B1000290941E06CE070E086E490E00E94290918
:102B200041E066E170E08AE590E00E94290941E019
:102B300063E070E08DE590E00E94290941E06CE0DF
:102B400070E08EE690E00E94290941E060E270E0CA
:102B50008EE690E00E942909E0908A06F12C80918F
:102B6000E90120E045EA57E0B70190E00E941F0824
:102B70008091EA0120E045EA57E0B70190E00E9429
:102B80001F088091EB0120E045EA57E0B70190E093
:102B90000E941F088091EC0120E045EA57E0B70150
:102BA00090E00E941F088091ED0120E045EA57E087
:102BB000B70190E00E941F08F12C0E94D109F8167D
:102BC000A8F48F2D90E0FC01EC50FE4F20812111E4
:102BD0000BC080519E4FDC018C9143E657E06FE2C1
:102BE00070E090E00E941F08F394E7CF20E041E5F9
:102BF00057E062E070E083E790E091104CC04FE056
:102C000057E062E070E083E790E00E941F08E090E8
:102C1000E601F12C8091E30120E04DEB56E0B70195
:102C200090E00E941F088091E40120E04DEB56E007
:102C3000B70190E00E941F086091E80170E0809168
:102C4000E50120E04DEB56E090E00E941F088091E6
:102C50000302882349F08091190220E0803428F093
:102C6000805822E0803408F021E08091FE019091AC
:102C7000FF0167E170E00E94301877278091FC0126
:102C80009091FD0197FD039695958795959587956C
:102C90004BE856E090E00E941F0867FC0EC02091B0
:102CA00019022095221F2227221F49E656E067E3DA
:102CB00070E0862D90E00E941F089920E1F0F12C31
:102CC0000E94D109F816B8F4EF2DF0E02091190216
:102CD0002095221F2227221FD801AE0FBF1F6C9103
:102CE00070E0E95FFD4F808149E35AE090E00E9487
:102CF0001F08F394E5CF20910102809105028823FB
:102D000059F02D5F672D70E047E358E0B88D8B2FA9
:102D100090E00E941F0837CA80910402811106C00A
:102D200080910602882311F02E5FECCF809119026A
:102D30008095881F8827881F280FE4CF8F929F9245
:102D4000AF92BF92CF92DF92EF92FF92CF93DF9339
:102D5000EC01688179818A819B816115710581050A
:102D6000910521F464E279ED8BE597E02DE133EFF5
:102D700041E050E00E94821749015A019B01AC01D9
:102D8000A7EAB1E40E94A1176B017C01ACEEB4EF9D
:102D9000A50194010E94AF17C60ED71EE81EF91EAA
:102DA000F7FE06C081E0C81AD108E10880E8F80AF9
:102DB000C882D982EA82FB82C701B6019F77DF9180
:102DC000CF91FF90EF90DF90CF90BF90AF909F900A
:102DD0008F9008958F929F92AF92BF92CF92DF9281
:102DE000EF92FF9260910E0170910F01809110019E
:102DF00090911101611571058105910521F464E23D
:102E000079ED8BE597E02DE133EF41E050E00E9452
:102E1000821749015A019B01AC01A7EAB1E40E9463
:102E2000A1176B017C01ACEEB4EFA50194010E94E7
:102E3000AF17C60ED71EE81EF91EF7FE06C081E0CA
:102E4000C81AD108E10880E8F80AC0920E01D092B1
:102E50000F01E0921001F0921101C701B6019F77B6
:102E6000FF90EF90DF90CF90BF90AF909F908F90AA
:102E7000089560930E0170930F0180931001909359
:102E800011010895BB27FB015527AA27880F991F19
:102E9000AA1FA41710F0A41B83955051B9F7A05D89
:102EA000AA3308F0A95DA193009779F7B111B19306
:102EB0001192CB010C945C17DC01FC01672F71911E
:102EC0007723E1F7329704C07C916D937083629110
:102ED000AE17BF07C8F30895F999FECF92BD81BD23
:102EE000F89A992780B50895262FF999FECF1FBA31
:102EF00092BD81BD20BD0FB6F894FA9AF99A0FBE23
:102F000001960895052E97FB1EF400940E949917D0
:102F100057FD07D00E94EB1707FC03D04EF40C942A
:102F2000991750954095309521953F4F4F4F5F4FE2
:102F3000089590958095709561957F4F8F4F9F4F25
:102F400008950E940D18A59F900DB49F900DA49F09
:102F5000800D911D11240895B7FF0C94A1170E94B4
:102F6000A117821B930B08952F923F924F925F926D
:102F70006F927F928F929F92AF92BF92CF92DF9289
:102F8000EF92FF920F931F93CF93DF93CDB7DEB7EE
:102F9000CA1BDB0B0FB6F894DEBF0FBECDBF099482
:102FA0002A88398848885F846E847D848C849B84D9
:102FB000AA84B984C884DF80EE80FD800C811B81E7
:102FC000AA81B981CE0FD11D0FB6F894DEBF0FBE16
:102FD000CDBFED010895A1E21A2EAA1BBB1BFD0176
:102FE0000DC0AA1FBB1FEE1FFF1FA217B307E407E8
:102FF000F50720F0A21BB30BE40BF50B661F771F40
:10300000881F991F1A9469F760957095809590951F
:103010009B01AC01BD01CF010895A29FB001B39FF8
:10302000C001A39F700D811D1124911DB29F700DD1
:10303000811D1124911D0895AA1BBB1B51E107C0DE
:10304000AA1FBB1FA617B70710F0A61BB70B881F38
:10305000991F5A95A9F780959095BC01CD010895C7
:1030600097FB072E16F4009407D077FD09D00E9435
:103070001C1807FC05D03EF4909581959F4F08954C
:10308000709561957F4F0895EE0FFF1F0590F491A5
:10309000E02D09940F931F93CF93DF938230910516
:1030A00010F482E090E0E0919106F091920630E019
:1030B00020E0B0E0A0E0309799F42115310509F443
:1030C0004AC0281B390B24303105D8F58A819B81F1
:1030D0006115710589F1FB0193838283FE0111C0A3
:1030E000408151810281138148175907E0F0481748
:1030F000590799F4109761F012960C931297139652
:103100001C933296CF01DF91CF911F910F910895BB
:103110000093910610939206F4CF2115310551F0DA
:103120004217530738F0A901DB019A01BD01DF0105
:10313000F801C1CFEF01F9CF9093920680939106E9
:10314000CDCFFE01E20FF31F8193919322503109FD
:1031500039832883D7CF20918F0630919006232B77
:1031600041F4209114013091150130939006209381
:103170008F0620911201309113012115310541F480
:103180002DB73EB74091160150911701241B350B06
:10319000E0918F06F0919006E217F307A0F42E1B42
:1031A0003F0B2817390778F0AC014E5F5F4F2417AB
:1031B000350748F04E0F5F1F5093900640938F06DF
:1031C000819391939FCFF0E0E0E09CCFCF93DF938A
:1031D0000097E9F0FC01329713821282A0919106C8
:1031E000B0919206ED0130E020E01097A1F420812B
:1031F0003181820F931F20918F06309190062817FE
:10320000390709F061C0F0939006E0938F06DF91D3
:10321000CF910895EA01CE17DF07E8F54A815B8177
:103220009E0141155105B1F7E901FB83EA834991FC
:103230005991C40FD51FEC17FD0761F4808191816E
:103240000296840F951FE901998388838281938177
:103250009B838A83F0E0E0E012968D919C91139716
:103260000097B9F52D913C911197CD010296820FEF
:10327000931F20918F06309190062817390739F651
:10328000309751F51092920610929106B0939006E5
:10329000A0938F06BCCFD383C28340815181840F1A
:1032A000951FC817D90761F44E5F5F4F88819981D8
:1032B000480F591F518340838A819B819383828366
:1032C0002115310509F0B0CFF0939206E0939106F5
:1032D0009ECFFD01DC01C0CF13821282D7CFB0E0B8
:1032E000A0E0E5E7F9E10C94B6178C01009751F4E2
:1032F000CB010E944A188C01C801CDB7DEB7E0E1CE
:103300000C94D217FC01E60FF71F9C0122503109E3
:10331000E217F30708F49DC0D901CD91DC91119714
:10332000C617D70798F0C530D10530F3CE01049702
:103330008617970708F3C61BD70B2297C193D19323
:103340006D937C93CF010E94E618D6CF5B01AC1A37
:10335000BD0A4C018C0E9D1EA0919106B091920663
:10336000512C412CF12CE12C109731F580918F06D6
:10337000909190068815990509F05CC0461657068D
:1033800008F058C08091120190911301009741F408
:103390008DB79EB74091160150911701841B950B74
:1033A000E817F90708F055C0F0939006E0938F06F0
:1033B000F90171836083A0CF8D919C911197129632
:1033C0006C90129713967C901397A815B90559F530
:1033D0006C0142E0C40ED11CCA14DB0420F1AC0124
:1033E0004A195B09DA011296159780F0628273829E
:1033F00051834083D9016D937C93E114F10471F002
:10340000D7011396FC93EE93129776CF22968C0FEA
:103410009D1FF90191838083F301EFCFF093920612
:10342000E093910669CF4816590608F42C017D01F6
:10343000D3019ACFCB010E944A187C01009749F032
:10344000AE01B8010E942C1AC8010E94E61887013B
:1034500053CF10E000E050CFFB01DC0102C001902F
:103460000D9241505040D8F70895FB01DC010190C6
:0C3470000D920020E1F70895F894FFCFC2
:10347C000301FFFFFFFF00E100000000000001005E
:10348C0000000000930680000104090F161E1E2088
:10349C001E1D1C18130E090400C1808100000000C1
:1034AC00000000F90564071A060F0660061E063CAC
:1034BC0006000000004A09E907DA09D9094D6974C8
:1034CC00747920746865204B6974747900412067A5
:1034DC00616D65206279004265616E202835292076
:1034EC002620427574746F6E202834290041707246
:1034FC00696C2027323320676176642E636F2E75DA
:10350C006B005072657373206120627574746F6EFA
:10351C0021004C6576656C004475666673004761E6
:10352C006D65206F7665722100596F7520676F7419
:10353C0020746F206C6576656C2000412077696E75
:0C354C006E657220697320796F75210094
:00000001FF
